:020000040800F2
:10000000580700209D010008CD260008C5260008DD
:10001000C9260008B5020008E12A00080000000017
:10002000000000000000000000000000D5260008CD
:10003000DD02000800000000D1260008D9260008D3
:10004000B7010008B7010008B7010008B7010008B0
:10005000B7010008B7010008B7010008B7010008A0
:10006000B7010008B7010008B7010008B90200088D
:10007000B7010008C5020008B7010008B701000871
:10008000B7010008B7010008B7010008B701000870
:10009000B7010008B7010008B7010008B701000860
:1000A000B701000899270008B7010008B701000848
:1000B000B7010008B7010008B7010008B701000840
:1000C000B7010008B7010008B7010008B701000830
:1000D000B7010008D52A0008B7010008B7010008D9
:1000E000B7010008B7010008B7010008B701000810
:1000F000B7010008B7010008B7010008B701000800
:10010000B7010008B7010008B7010008B7010008EF
:10011000B7010008B7010008B7010008B7010008DF
:10012000B7010008B7010008B7010008B7010008CF
:10013000B7010008B7010008B7010008B7010008BF
:10014000B7010008B7010008B7010008B7010008AF
:10015000B7010008B7010008D1020008B701000884
:10016000B7010008B7010008B7010008B70100088F
:10017000B7010008B7010008B7010008000000003F
:10018000B7010008B7010008DFF80CD000F07AF8DA
:1001900000480047952B0008580700200648804774
:1001A00006480047FEE7FEE7FEE7FEE7FEE7FEE75C
:1001B000FEE7FEE7FEE7FEE7852700088901000865
:1001C0002DE9F05F0546002092469B46884606468C
:1001D000814640241BE0284641464746224600F01F
:1001E00041F853465A46C01A914110D31146184659
:1001F000224600F028F82D1A67EB01084F462246E8
:100200000120002100F01FF817EB00094E41201ECD
:10021000A4F10104DFDC484631462A464346BDE8E6
:10022000F09FD2B201E000F8012B491EFBD27047CB
:100230000022F6E710B513460A4604461946FFF7B2
:10024000F0FF204610BD202A04DB203A00FA02F11C
:10025000002070479140C2F1200320FA03F31943B4
:1002600090407047202A04DB203A21FA02F0002156
:10027000704721FA02F3D040C2F1200291400843B6
:10028000194670471CB50948009009480190054679
:10029000009C06E0E06840F0010394E807009847FE
:1002A0001034AC42F6D3FFF773FF0000683000084B
:1002B00088300008FEE7000040F29400C2F200001F
:1002C00000F09ABA40F2F400C2F2000000F094BAD2
:1002D00040F25410C2F2000000F08EBA70470000E5
:1002E00072B600BFFEE7000090F83C20012A04BF70
:1002F00002207047F0B5D1F800E001221FFA8EF716
:100300007B0080F83C200EEB4E0413FA8EF3102293
:10031000BEF1090F88BFA3F11E0488BF0C22036839
:100320004FF0070C9E580CFA04F526EA05069E507D
:100330008E689D5806FA04F646EA05069E509A6BAA
:1003400098BF774622F440129A63D1F804C00A6934
:1003500000258C69CFF6F0759E6B05EB0255ACEB72
:100360000202354303329D63D5B2AD0055FA82F2E5
:100370001F259E6B954026EA05059D639D6B07FA38
:1003800002F22A439A639A68012522F470229A6045
:100390009A68C0F20F05AC4202D122F4401208E084
:1003A00022439A609A6822F440129A60CA699C6853
:1003B00022439A600A7D4C7D5D68002C25F480659F
:1003C00018BF05F580655D605C68002A24F48054E0
:1003D000ACF101024FF0200618BF04F580545C60B8
:1003E0001427032A38BF07EB82069A5940F6FF7795
:1003F000BA439A51CA689F5942F20431C4F20101CA
:100400003A43A1F54177BB429A5105D0002180F8CB
:100410003C100020F0BD00BFBEF1120F02D14FF41E
:10042000800205E02EF00102102AEFD14FF4000205
:100430000B681A430A60002180F83C100020F0BDD0
:1004400070B581B00022009290F83C20012A03D1BF
:10045000022001B070BD00BFD1F800E001221FFAF8
:100460008EFC4FEA4C0380F83C200EEB4E0213FA50
:100470008EF31024BEF1090F88BFA3F11E0288BFBE
:100480000C24036807251E59954026EA05051D51D1
:100490008D681E5905FA02F232431A51496806293D
:1004A00006D801EB81014A1F194651F8345F0EE06E
:1004B0000C2901EB810105D8A1F12302194651F85D
:1004C000305F04E0A1F14102194651F82C5F1F246E
:1004D000944025EA04040C600CFA02F20C6842F223
:1004E000043CC4F2010C2243ACF54174A3420A60FF
:1004F0003ED1BEF1120F07D1DCF8001041F48001AB
:10050000CCF8001034E000BF2EF0010110292FD1EB
:10051000DCF80010BEF1100F41F40001CCF800101F
:1005200026D140F23801C2F2000109684DF683621B
:10053000C4F21B32A1FB0212910C01EB81014900B4
:1005400000910099A1B1009901390091009979B108
:10055000009901390091009951B100990139009138
:10056000009929B100990139009100990029EAD137
:10057000002180F83C10002001B070BD002804BFAD
:100580000120704710B5016C00293DD0016CC906EF
:1005900045D4016C41F202129143023142F204321D
:1005A0000164C4F20102116821F440311160136842
:1005B00090E812102343D0F810E013604A68012439
:1005C00022F480724A604A68C0F6007442EA0E2241
:1005D0004A604A6822F040724A604A6842EA0C0265
:1005E0004A608A6822F400628A60C2688B681A4393
:1005F0008A60826A8B68A24223F070638B608B688A
:1006000010D123F0405216E0044600F065F8204671
:100610000021616484F83C10016CC906B9D5012140
:1006200053E000BF1A438A608A6822F040528A6011
:10063000C26A8B681A438A608A6822F002028A6062
:100640008A68037E90F8204042EA43028A604A6842
:1006500084B142F400624A604A684EF2000322F418
:1006600060424A60426ACFF6FF734C6803EB423245
:10067000224301E022F400624A60CA6A40F2000CA0
:1006800022F47002CA62C3694269CFF6F07CCC6A78
:100690000CEB03532343CB628B6823F400738B6012
:1006A00090F830308C6844EA43238B608B6823F4E5
:1006B00080638B608B6843EA82228A6000214164F8
:1006C000026C012363F301020264002280F83C20E3
:1006D000BDE810400846704780B586B042F2000180
:1006E0000068C4F20101002288420592CDE903228C
:1006F0000292019202D006B080BD00BF43F63000E6
:100700000092C4F20200436943F480734361436979
:1007100003F480730093009B0092036843F001038D
:100720000360006800F00100009000980320CDE90C
:10073000010001F5604001A9039200F005FA06B03E
:1007400080BD000070B5866D044600F0DBFA94F8B9
:100750003510022928D105462068216C026822F054
:1007600016020260426922F08002426109B9A16C5E
:1007700019B1016821F008010160016821F001014F
:10078000016000BF20680068C00715D000F0BAFA09
:10079000401B0628F6D320206065032084F835002E
:1007A000002184F8341070BD802060650120002194
:1007B00084F8341070BD00BFE06D3F2101FA00F0F5
:1007C000B060012084F835000020002184F8341046
:1007D00070BD000090F83510022909D1052180F87C
:1007E00035100068016821F00101016000207047A8
:1007F0008021416501207047F0B581B00021009152
:1008000040F23801C2F200010B68D0E9166148F2EB
:10081000B51537680822C1F64E358A403A42A3FB27
:1008200005350CD003681C68640708D51C6824F0E3
:1008300004041C60B260426D42F001024265012274
:100840008A403A4208D003685B691B0604D5B2604F
:10085000426D42F00202426504228A403A4208D0C8
:1008600003681B689B0704D5B260426D42F0040226
:10087000426510228A403A4219D001680B681B0772
:1008800015D5B2600B680A685B0309D4D20509D498
:100890000A6822F008020A60016C29B907E000BF6B
:1008A000110341D4016C11B1044688472046C26D42
:1008B000202101FA02F33B4243D001680F68FF0692
:1008C0003FD5B36090F835700B68052F1CD123F02D
:1008D00016030B604B6923F080034B61036C0BB96B
:1008E000836C1BB10B6823F008030B603F21914020
:1008F000B160012180F83510016D0022002980F8D7
:10090000342054D158E000BF0A685B0310D4D205EC
:1009100012D40A6822F010020A60012180F8351012
:10092000002180F8341007E0816C0029BCD1BEE7BB
:10093000110301D4416C00E0C16B11B1044688473A
:100940002046416DC1B3416DC9072ED0052180F805
:1009500035100168AA0A0B6823F001030B60009BA5
:100960000133934200931AD80B68DB0717D0009B22
:1009700001339342009312D80B68DB070FD0009B22
:100980000133934200930AD80B68DB0707D0009B22
:1009900001339342009302D80B68DB07DFD10121BA
:1009A00080F83510002180F83410C16C21B101B0FD
:1009B000BDE8F040084700BF01B0F0BD2DE9F041AF
:1009C000044600F09FF9ECB10546022084F835009A
:1009D0000020216884F83400086820F001000860D5
:1009E00021680868C00711D000F08CF9401B052869
:1009F000F6D9032520230320636584F83550BDE82C
:100A0000F08100BF0120BDE8F08100BF086848F216
:100A10003F02CFF21002D4E9013500EA020C04F1E2
:100A20000C0898E8C10143EA0C032B431843D4E9AE
:100A3000072E304338431043626A40EA0E00042A0E
:100A400040EA08031CD1206BD4E90A2E40EA0E00CC
:100A5000184308604869BEF1000F20F0030040EA27
:100A6000020040F0040C11D0B8F5005F36D0B8F1A8
:100A7000000F45D1022A46D0012A3BD032B942E0CC
:100A80000B60486920F0070040EA020C01F0F80012
:100A90004AF6AB221038CAF6AA22A0FB02231A0992
:100AA00043F25803C1F814C0C0F600039A5C40F248
:100AB000FF335F284FF03F0021EA030100FA02F004
:100AC00088BF0431C4E91612886000230125002084
:100AD000636584F83550BDE8F08100BF032AD5D89E
:100AE000012540230120DFE802F0030E030500BFCB
:100AF00082E700BFAEF1C070B0FA80F0400904E0B8
:100B0000032A04D3C2D1CEF300600028BED0012551
:100B100040230120636584F83550BDE8F081000072
:100B2000B0B5044600F0EEF8054640F20000C2F20F
:100B300000000078611C18BF044400BF00F0E2F818
:100B4000401BA042FAD3B0BD2DE9F04F83B000F1B5
:100B5000200200F13E4741F60045009207F1FF7781
:100B6000C4F2020508224FEAB726A84208BF0722AE
:100B700000254FF000084FF00009072E38BF4FEA5C
:100B8000B72201920AE000BF09F1010908F1020849
:100B9000B9F1100F05F1040500F0A2800F680122E1
:100BA00002FA09FE17EA0E0AEED0D1F804C00322B9
:100BB0000CF003077E1E02FA08F4012E6FEA040B04
:100BC00012D88468CE6804EA0B0406FA08F63443A7
:100BD0008460446824EA0E06CCF3001404FA09F495
:100BE0002643466004E000BF032F01D103271EE027
:100BF000C6688C6806EA0B0604FA08F42643022F3E
:100C0000C66014D16FF00302009E02EA590756F83D
:100C100007C005F01C040F220B69A2402CEA020257
:100C2000A3401A43F251D1F804C00CF00307026844
:100C300007FA08F302EA0B021A431CF4403F026071
:100C4000A2D0002243F644030292C4F202031A68BF
:100C500043F6004442F480421A601A68C4F2010468
:100C600002F480420292029A29F003024FF6084CE5
:100C70002244CFF6FF7C52F80C3005F00C070F260B
:100C8000BE40B343019E06FA07F73B4342F80C30DF
:100C9000A2684B6842EA0A0743F60C4CDE0258BFD2
:100CA00022EA0A07A760C4F2010CDCF800209E02C9
:100CB00042EA0A0758BF22EA0A07CCF800706268C5
:100CC0009E0342EA0A0758BF22EA0A0767602268C1
:100CD000DB0342EA0A0758BF22EA0A07276053E704
:100CE00003B0BDE8F08F0000426902EA01039143BE
:100CF00041EA034181617047002A08BF090481610C
:100D00007047000040F25430C2F2000000687047A3
:100D1000002804BF01207047F0B581B0044690F868
:100D20003D0028B9002084F83C00204600F0A2F8DD
:100D3000242084F83D002068016821F00101016051
:100D4000016841F400410160016821F40041016043
:100D500000F090FA636848F2A16CC0F2010C40F612
:100D60000011C0F23D0163453CBF48F28041C0F232
:100D70001E01884202D2012001B0F0BD4DF6836110
:100D8000C4F21B31A0FB01122168970CD1F804E0DA
:100D90004FF496762EF03F0545EA92454D60774335
:100DA00048F638160D6AC0F24106A7FB067625F014
:100DB0003F07634538BF960C721C3A430A62CA6902
:100DC00048F2A0664CF6FF77C0F20106B34222EA71
:100DD00007020BD801385B00B0FBF3F001306FF372
:100DE0001F30042898BF04201BE000BFA76801380B
:100DF00057B119277B43B0FBF3F001306FF31F307D
:100E000070B100F5804007E003EB4303B0FBF3F063
:100E100001306FF31F3018B100F5004001E000BF52
:100E200001201043C8610868D4E9072320F0C000FE
:100E3000104318430860886848F2FF3204F10C0739
:100E400090438CCF18431043A6698860C86820F08F
:100E5000FF0038433043C860086840F00100086074
:100E600000202021206484F83D10206384F83E0097
:100E700001B0F0BD70B586B00446006845F60001CB
:100E8000C4F2000100268842CDE90466CDE902667D
:100E9000019639D045F20041C4F2000188427CD16C
:100EA00043F630050096C4F20205286801A940F017
:100EB00002002860286800F0020000900098C0201E
:100EC00001901220CDE90206032004900420059031
:100ED00040F20040C4F20200FFF736FE0096286997
:100EE0004FF0007140F400102861286940F2940529
:100EF00000F400100090009846F21000C2F20005C5
:100F0000C4F2020034E000BF43F630050096C4F29C
:100F10000205286801A940F002002860286800F056
:100F20000200009000984FF4406001901220CDE93B
:100F30000206032004900420059040F20040C4F211
:100F40000200FFF701FE009628694FF0606140F44F
:100F500080002861286940F2F40500F480000090C8
:100F6000009846F21000C4F202003030C2F20005D0
:100F70004FF48062286028466960AE60EE602A61A6
:100F80006E61AE61EE612E626E62FFF717FD0028A2
:100F900018BFFFF7A5F9A563AC6306B070BD0000EC
:100FA00040F2000040F25431C2F20000C2F20001EF
:100FB00000780A68104408607047000080B543F666
:100FC0000040C4F20200016841F400710160016850
:100FD00041F480610160016841F480710160032087
:100FE00000F086F80F2000F005F800F027F8002048
:100FF00080BD000070B540F20006C2F2000640F26B
:1010000038013278C2F200014FF47A730968B3FBF9
:10101000F2F20446B1FBF2F1084600F00FFC0F2C8F
:101020004FF0010508D838B94FF0FF3021460022B3
:10103000002500F031F87460284670BD82B00020B1
:1010400043F640010190C4F202014A6842F4804232
:101050004A604A6802F480420192019A009008684E
:1010600040F080500860086800F0805000900098C0
:1010700002B07047002848BF704700F01F010122EE
:1010800002FA01F11C2202EAD0004EF20012CEF266
:10109000000281507047000010B54EF60C5CCEF295
:1010A000000CDCF80030C3F3022E8EF00704042C91
:1010B00028BF0424BEF103034FF0FF3E0EFA04F4F0
:1010C00038BF0023A14399400EFA03F39A4311431A
:1010D00000F00F0200F160430901043A03F5644394
:1010E0006244002848BF02F10C03197010BD0000D3
:1010F0004EF60C51CEF200010A684FF6FF031A407B
:1011000060F30A2242F0806040F0FD700860704792
:10111000002804BF012070472DE9F04143F608087C
:10112000C4F202080446D8F8F8030D4600F00700A0
:10113000814207D988F8F853D8F8F80300F007007F
:10114000A84277D12068810717D5410705D5D8F87F
:10115000001041F4E051C8F80010010705D5D8F897
:10116000001041F46041C8F80010D8F80010A268DF
:1011700021F0F0011143C8F80010C00740D1D8F8A1
:10118000F80300F00700854207D288F8F853D8F832
:10119000F80300F00700A8424CD12068410707D5AA
:1011A000D8F80010E26821F4E0511143C8F80010AB
:1011B000000708D5D8F80000216920F4604040EA13
:1011C000C100C8F8000000F07DF8D8F8001043F224
:1011D0004002C1F30311C0F60002515C40F2380234
:1011E00020FA01F140F20400C2F200000068C2F2ED
:1011F00000021160FFF7FEFE0020BDE8F08100BF95
:101200006068811E022907D258F8081C89015CBF5A
:101210000120BDE8F08111E0012807D158F8081C31
:1012200089035CBF0120BDE8F08107E058F8081C85
:10123000890703D40120BDE8F08100BFD8F8001071
:1012400021F003010843C8F80000FFF75BFD0646E4
:1012500041F28837D8F80000616800F00C00B0EB6C
:10126000810F8CD0FFF74EFD801BB842F2D90320CE
:10127000BDE8F08140F2380043F60801C2F20000F8
:10128000C4F202010068096843F25002C1F38221EE
:10129000C0F60002515CC8407047000040F23800C0
:1012A00043F60801C2F20000C4F2020100680968B6
:1012B00043F25002C1F34231C0F60002515CC84013
:1012C0007047000010B543F60404C4F202046168DC
:1012D000C1F3810142F20040C0F2F400DFE801F006
:1012E00002040A0210BD00BF47F64000C0F27D10A4
:1012F00010BD00BF206821682368490247F64001FD
:10130000C0F27D1100F03F02C3F388105CBF42F2CF
:101310000041C0F2F401A1FB00010023FEF750FFE1
:1013200021680222C1F3014102EB4101B0FBF1F05F
:1013300010BD0000002804BF012070472DE9F041D6
:1013400082B00446007843F60006C007C4F20206E5
:101350000CD0B06800F00C00042840F081803068A8
:10136000800303D56068002800F06881207880073A
:101370001BD5B06810F00C0F09D0B06800F00C005D
:10138000082840F087807068400200F18380306850
:10139000800703D5E068012840F05081306821695A
:1013A00020F0F80040EAC10030602078000713D434
:1013B000207840072AD4A569002D00F03A81B06852
:1013C00000F00C00082840F0A580012D40F00E81AF
:1013D000012002B0BDE8F0816069002800F0828041
:1013E0000020C4F247200121C0F8801EFFF78AFCCC
:1013F000054600BF706F8007DAD4FFF783FC401BFF
:101400000228F7D9032002B0BDE8F081306C5FEA12
:10141000C0080AD400200190306C40F08050306445
:10142000306C00F080500190019847F20007C4F240
:1014300000073868C00547D4386840F480703860C9
:10144000FFF760FC054600BF3868C0053CD4FFF7D5
:1014500059FC401B0228F7D9032002B0BDE8F081F7
:10146000B06800F00C00082803D1706840023FF516
:1014700076AF61683068B1F5803F07D0B1F5A02F35
:1014800040F09A8040F480203060306840F4803032
:1014900030609AE0E068002840F20000C4F2472083
:1014A0005CD001210160FFF72DFC05463068800704
:1014B0003FF574AFFFF726FC401B0228F6D9032046
:1014C00002B0BDE8F08100BFA168306F012905D0EE
:1014D000052955D140F004003067306F40F001001D
:1014E000306756E00020C4F247200021C0F8801E7B
:1014F000FFF708FC054600BF706F80077FF558AF07
:10150000FFF700FC401B0228F6D9032002B0BDE81B
:10151000F08100BF0027C4F2472700203866FFF79C
:10152000F1FB022D05460DD13068800140F18A8023
:10153000FFF7E8FB401B02284FF00300F4D902B08C
:10154000BDE8F0813068800173D5FFF7DBFB401BFD
:1015500002284FF00300F5D9F1E700BF0021016038
:10156000FFF7D0FB054600BF306880077FF51DAF51
:10157000FFF7C8FB401B02284FF00300F4D9DEE759
:1015800020F001003067306F002920F00400306740
:101590007AD0FFF7B7FB054641F28837306F8007F6
:1015A00000F18480FFF7AEFB401BB842F6D9032060
:1015B00002B0BDE8F08100BF20F4803030603068B8
:1015C000002920F4802030607AD0FFF79BFB05468D
:1015D000306880033FF5CAAEFFF794FB401B6428D8
:1015E000F6D9032002B0BDE8F08100BF7068E16960
:1015F00000F480028A4221D1216A00F03F028A422F
:101600001CD147F6C071626A0140B1EB821F15D14F
:10161000A16A4FF6FF73C903994300F44032A1F564
:1016200080318A420AD1E16A00F07060B0EB016F4C
:1016300004D1002002B0BDE8F08100BF012002B05B
:10164000BDE8F08104F11C052FCD084340EA82106B
:10165000D9034FF6FF729143A1F5803140EA05604E
:101660000843706001203866FFF74CFB044600BF5A
:1016700030688001DDD4FFF745FB001B02284FF0E6
:101680000300F5D95BE700BFFFF73CFB054641F2DD
:10169000883700BF306F800708D5FFF733FB401B4A
:1016A000B8424FF00300F5D949E700BFB8F1000F89
:1016B0003FF581AE306C20F0805030647BE600BF97
:1016C000FFF720FB054600BF306880037FF54EAE74
:1016D000FFF718FB401B64284FF00300F4D92EE7F6
:1016E00070B528B1416A29B100210161142106E0D9
:1016F000012070BD4168B1F5827F02D01C2100221B
:1017000042500026866290F8511029B980F8506046
:10171000054600F03DF82846022180F8511090E877
:101720002E0002F482720C6803F4044324F0400497
:101730000C601A4405F4006305691A4405F00203BD
:1017400045691A4405F001038569C4691A4405F422
:1017500000731A4404F03803046A1A4404F0800346
:10176000846A1A4304F400531A430A60436A042249
:1017700002EA154203F010031A444A60CA6922F4CF
:101780000062CA610121466580F85110304670BD83
:101790002DE9F04387B043F200050068C4F201056B
:1017A0000026A8420696CDE904660396029603D069
:1017B00007B0BDE8F08300BF43F630000196C4F2E5
:1017C0000200416902AC41F48051416141694FF02E
:1017D000020801F4805101910199019601684FF0CE
:1017E000030941F0010101600168052701F00101D1
:1017F000019101990196016841F0020101600068C0
:10180000214600F00200019001988020029005F529
:101810005040CDE90386CDF814900697FFF794F970
:101820001820CDE9020805F554402146CDE90469A8
:101830000697FFF789F907B0BDE8F083411E002045
:10184000B0EB116F1CBF012070474EF21002CEF2B8
:10185000000251604EF62351CEF20001F0230B70CE
:1018600007219060116070477047000070470000CA
:1018700090F83C20012A04BF02207047B0B501F166
:1018800008053CCDD1E900CE23F47C5322F47052FC
:101890001A432EF4F0431A432CF4E0431A4324F481
:1018A000C0431A432A43C96922F4804203681143A2
:1018B0005964002180F83C100020B0BD90F83C2015
:1018C000012A4FF0020254D010B580F83D20026882
:1018D000D2F804E0D2F808C00C682EF0700323435D
:1018E00041F2FF74C4F20004A24253600EDC40F2E5
:1018F000FF73C4F200039A4216DCB2F1804F2BD082
:1019000040F20043C4F2000324E000BF40F2FF3382
:10191000C4F201039A4213DC41F60003C4F200034F
:101920009A4219D0002313E040F60003C4F20003EA
:101930009A4211D040F60043C4F200030AE000BF0F
:1019400044F20003C4F201039A4205D040F200437E
:10195000C4F201039A4204D149682CF08003194370
:1019600091600121002280F83D1080F83C20BDE804
:101970001040104670470000002804BF0120704747
:1019800010B5044690F83D0028B9002084F83C00CA
:10199000204600F01FF8022084F83D002068211D39
:1019A00000F000FF012084F8460084F83E0084F82F
:1019B0003F0084F8400084F8410084F8420084F835
:1019C000430084F8440084F8450084F83D0000207A
:1019D00010BD000000680021C4F20101884218BF58
:1019E000704780B582B00020019043F64400C4F2F5
:1019F00002000168002241F001010160006800213D
:101A000000F00100019001981920FFF745FB192013
:101A100002B0BDE88040FFF72DBB000090F83C20ED
:101A2000012A4FF002026CD080B580F83D20D0F83A
:101A300000C04FF67772DCF8083023EA0202CCF8D7
:101A400008200B684F2B29DC1F2B45DD202B46D0AF
:101A5000302B44D0402B40F0AF80D1F804E0C9686F
:101A6000DCF82030DCF8202022F00102CCF8202025
:101A7000DCF8182022F0F00242EA011123F00A02F9
:101A800042EA0E02CCF81810CCF82020DCF808103E
:101A900041F0470121F0300128E000BF6F2B33DD1A
:101AA000B3F5005F74D0B3F5805F21D0702B40F0A8
:101AB0008380D1E901E3C968DCF8082043EA0E031A
:101AC00022F47F4243EA01211143CCF80810DCF8EC
:101AD000081041F0770109E00BB1102B6CD1DCF854
:101AE000081021F07001194341F00701CCF80810EB
:101AF0000022012180F83D10002180F83C10BDE853
:101B000080401046704700BF502B21D0602B53D12E
:101B1000D1F804E0C968DCF82030DCF8202022F09D
:101B20001002CCF82020DCF8182022F4704242EA9F
:101B3000013123F0A00242EA0E12CCF81810CCF8C2
:101B40002020DCF8081041F0670121F01001CDE7FA
:101B5000D1F804E0C968DCF82030DCF8202022F05D
:101B60000102CCF82020DCF8182022F0F00242EA32
:101B7000011123F00A0242EA0E02CCF81810CCF848
:101B80002020DCF8081041F0570121F02001ADE7DA
:101B9000D1E901E3C968DCF8082043EA0E0322F426
:101BA0007F4243EA01211143CCF80810DCF8081009
:101BB00041F480419AE700BF01229AE77047000094
:101BC00070B504460068C5680669B10716D515F0FA
:101BD000020113D06FF002010161012121778069B8
:101BE000800703D02046FFF7E9FF05E0204600F01C
:101BF000BDF8204600F0FCF900202077700719D5C9
:101C000015F0040016D020686FF004010161022174
:101C10002177806910F4407F04D02046FFF7CEFF83
:101C200006E000BF204600F0A1F8204600F0E0F9F1
:101C300000202077300717D515F0080014D0206851
:101C40006FF00801016104212177C069800703D08A
:101C50002046FFF7B3FF05E0204600F087F8204656
:101C600000F0C6F900202077F00619D515F0100015
:101C700016D020686FF01001016108212177C0693A
:101C800010F4407F04D02046FFF798FF06E000BF25
:101C9000204600F06BF8204600F0AAF900202077DB
:101CA000F00718BF15F0010002D1300609D412E088
:101CB00020686FF001010161204600F09BF93006B9
:101CC00009D515F0800006D020686FF08001016111
:101CD0002046FFF7C9FD700609D515F0400006D073
:101CE00020686FF040010161204600F085F9B006E0
:101CF00058BF70BD15F0200008D021686FF0200299
:101D000020460A61BDE87040FFF7B0BD70BD00001D
:101D100080B586B000210068C4F20101002288422B
:101D20000592CDE903220292019201D006B080BD56
:101D300043F630000092C4F20200036843F010033F
:101D40000360006800F01000009000984FF42850E5
:101D500001900220CDE902020120059001F58830B2
:101D600001A90492FEF7F0FE06B080BD70470000A6
:101D700090F83C30012B04BF022070474FEAB202BA
:101D8000032A00F2FF802DE9F043DFE802F003B1FF
:101D90003F7F00BF036840F200461C6A1A6A24F0C5
:101DA000020422F001021A621A46D3F804C052F863
:101DB00018EF8F6843F48065C4F20106B54244EA27
:101DC000070405D1CF6824F00C0427F004073C4336
:101DD0000F68B54206D1D1E905582CF440762E4360
:101DE00046EA080C2EF073063743C3F804C09F611F
:101DF0004F6809695F631C629F6947F008079F612C
:101E00009F6927F004079F61B1E000BF036840F2BB
:101E100000481C6A1A6A24F4007422F480721A6260
:101E20001A46D3F804C052F81CEF8F6843F480655B
:101E3000C4F20108454544EA072408D1CF6840F2BE
:101E4000FF463F0224F4406427EA06063443D1F8F3
:101E50000090454506D1D1E905562CF440572E4354
:101E600047EA061C2EF0730747EA0907C3F804C0C7
:101E7000DF614F680969DF631C62DF6947F00807AB
:101E8000DF61DF6927F00407DF6170E0036840F27B
:101E90000045D3F820C01A6A43F4806722F48052C8
:101EA0001A621A465C6852F81C8FD1F800E08E68FE
:101EB000C4F20105AF4204D14D6924F4804444EAE0
:101EC00085142CF4005747EA063728F4E64646EA1C
:101ED0000E265C60DE614E6809691E641F62DF6960
:101EE00047F40067DF61DF6927F48067DF613DE069
:101EF000036840F200481C6A1A6A24F0200422F0A9
:101F000010021A621A46D3F804C052F818EF8F680C
:101F100043F48065C4F20108454544EA071407D13B
:101F2000CF686FF0400624F0C00406EA0716344379
:101F3000D1F80090454506D1D1E905562CF440670B
:101F40002E4347EA860C2EF4E64747EA0927C3F8F2
:101F500004C09F614F6809699F631C629F6947F4D1
:101F600000679F619F6927F480679F61090213687A
:101F7000194311600021BDE8F043002280F83C20A5
:101F8000084670470121002280F83C20084670472F
:101F9000002804BF0120704710B5044690F83D00AA
:101FA00028B9002084F83C00204600F01FF80220E9
:101FB00084F83D002068211D00F0F4FB012084F826
:101FC000460084F83E0084F83F0084F8400084F81E
:101FD000410084F8420084F8430084F8440084F807
:101FE000450084F83D00002010BD0000704700004F
:101FF0007047000070470000704700007047000005
:1020000070470000B0B582B001680A68CC684B69BF
:1020100002F02F05202D04F0200505D125B102B0D6
:10202000BDE8B04000F062BC5FEA027C1EBF03F076
:10203000010E04F4907313EB0E0341D1036BD5062C
:1020400018D5012B16D114F0100313D000220192E1
:102050000A6801924A680192019A496949064BD47B
:10206000818DC28DC38D002B18BF914240F0068236
:1020700002B0B0BD13062DD514F080032AD090F81D
:102080004120212AF4D18268B2F5805F03D1026930
:10209000002A00F07982026A531C036212784A60B7
:1020A000C28C013A1304C284E2D1C86820F08000D7
:1020B000C860C86840F04000C86002B0B0BD00BF52
:1020C000D30718BF14F4807340F0E280530700F187
:1020D000E580EAE05206CBD514F04002C8D0CA68C9
:1020E00022F04002CA60202180F8411002B0BDE811
:1020F000B04000F0E5BA00BFC26B11684B68858D37
:1021000099B2002900F0B480A94280F0B180C38563
:10211000D169B1F5807F00F0A080016851E8031F0C
:10212000026821F4807142E80313DBB1016851E8D1
:10213000031F026821F4807142E8031393B1016820
:1021400051E8031F026821F4807142E803134BB188
:10215000016851E8031F026821F4807142E803130B
:10216000002BDAD1016851E8051F026821F0010156
:1021700042E80513BBB3016851E8051F026821F06E
:10218000010142E8051373B3016851E8051F0268B5
:1021900021F0010142E805132BB3016851E8051F46
:1021A000026821F0010142E80513002BDAD11AE0A0
:1021B000016851E8051F026821F0400142E805135B
:1021C000DBB1016851E8051F026821F0400142E8D7
:1021D000051393B1016851E8051F026821F0400121
:1021E00042E805134BB1016851E8051F026821F070
:1021F000400142E80513002BDAD1202180F842107B
:1022000000210163016851E8031F026821F01001F9
:1022100042E80313DBB1016851E8031F026821F0B3
:10222000100142E8031393B1016851E8031F0268EB
:1022300021F0100142E803134BB1016851E8031F7C
:10224000026821F0100142E80313002BDAD1C16BC0
:1022500004460846FEF776FA204602214163818D46
:10226000C28D891A89B202B0BDE8B040FFF7C6BE80
:102270008D427FF4FDAED269B2F5807F7FF4F8AE77
:102280000222426302B0BDE8B040FFF7B7BE00BF14
:10229000436C43F001034364530706D5BEF1000FBE
:1022A00003D0436C43F002034364930706D5BEF1A9
:1022B000000F03D0436C43F004034364BCF1000FF0
:1022C00006D55EEA050303D0436C43F0080343647C
:1022D000436C002B3FF4CCAE920605D525B10446E5
:1022E00000F004FB216820464969426C01F040017E
:1022F00002F00802891800F0B98000BF016851E8B7
:10230000031F026821F4907142E80313BBB3016814
:1023100051E8031F026821F4907142E8031373B37C
:10232000016851E8031F026821F4907142E8031329
:102330002BB3016851E8031F026821F4907142E851
:102340000313002BDAD11AE0016851E8051F026877
:1023500021F0010142E80513DBB1016851E8051FD6
:10236000026821F0010142E8051393B1016851E8C8
:10237000051F026821F0010142E805134BB1016815
:1023800051E8051F026821F0010142E80513002B06
:10239000DAD1016B012924D1016851E8031F0268D9
:1023A00021F0100142E80313DBB1016851E8031F7B
:1023B000026821F0100142E8031393B1016851E86B
:1023C000031F026821F0100142E803134BB10168BA
:1023D00051E8031F026821F0100142E80313002BAB
:1023E000DAD1202180F84210002101630168496997
:1023F000490640F1C380016851E8051F026821F0D9
:10240000400142E80513DBB1016851E8051F02688D
:1024100021F0400142E8051393B1016851E8051F1E
:10242000026821F0400142E805134BB1016851E810
:10243000051F026821F0400142E80513002BDAD1A4
:10244000C16B002900F09A8042F6E102C0F600025A
:10245000044608460A65FEF7BDF900283FF408AEB9
:10246000E06B016D02B0BDE8B04008470446FFF7DD
:10247000C7FD0020606402B0B0BD00BF891A00BF74
:10248000026852E8032F036822F4907243E80325A0
:10249000BDB3026852E8032F036822F4907243E848
:1024A000032575B3026852E8032F036822F4907283
:1024B00043E803252DB3026852E8032F036822F492
:1024C000907243E80325002DDAD11AE0026852E841
:1024D000052F036822F0010243E80525DDB10268FB
:1024E00052E8052F036822F0010243E8052595B163
:1024F000026852E8052F036822F0010243E805252F
:102500004DB1026852E8052F036822F0010243E84A
:102510000525002DDAD1202280F842200022026316
:10252000026852E8032F036822F0100243E80325F3
:10253000DDB1026852E8032F036822F0100243E87D
:10254000032595B1026852E8032F036822F01002B8
:1025500043E803254DB1026852E8032F036822F0D7
:10256000100243E80325002DDAD1022289B242632A
:1025700002B0BDE8B040FFF741BD00BF02B0BDE80A
:10258000B040FFF73DBD00BF026A32F8023B6FF377
:102590005F234B60026283E5002804BF012070477F
:1025A00010B5044690F8410028B9002084F8400096
:1025B000204600F021F8242084F841002068C168FA
:1025C00021F40051C160204600F010FA2068016932
:1025D00021F490410161416921F02A014161C16802
:1025E00041F40051C16000202021606484F8411052
:1025F00084F84210606310BD70B586B0044641F2A5
:1026000000002168C4F20100002681420596CDE950
:1026100003660296019601D006B070BD43F6300104
:102620000096C4F202014A6900F5704042F01002BF
:102630004A614A6902F010020092009A00960A6804
:1026400042F001020A60096801F00101009100995D
:102650004FF4C06101910221CDE9021603210491DA
:102660000721059101A9FEF76FFA40F2541546F2D1
:10267000B840C2F20005C4F202004FF000614022EF
:102680004FF4806385E847002846C5E90436C5E96C
:102690000666C5E90866FEF791F9002818BFFDF740
:1026A0001FFE252000210022A563AC63FEF7F4FC89
:1026B0002520FEF7DFFC06B070BD0000704700006B
:1026C00070470000FEE70000FEE70000FEE70000A4
:1026D0007047000070470000FEF762BC70B592B012
:1026E00006AC20463021FDF7A3FD002543F640004F
:1026F0000595CDE90355CDE901550095C4F20200D9
:102700000168022641F080510160006800F08050AD
:102710000090009847F200000095C4F200000168A4
:1027200041F480410160006800F48040009000980E
:102730000120099010200A9008200E90A820CDE9D1
:102740000F060420119020460696CDE90C65FEF791
:10275000F1FD18B172B600BFFEE700BF0F20CDE952
:1027600001064FF4A05004904FF48050059001A84A
:1027700005210395FEF7CCFC10B172B6FEE700BF51
:1027800012B070BD4EF68850CEF20000016841F4E0
:10279000700101607047000040F2B420C2F20000F6
:1027A000FFF70EBAB0B540F6FF3E0568C4F2000E62
:1027B00040F2004C7045C4F2010C25DCB0F1804FB2
:1027C0002FD040F20043C4F20003984229D040F6D3
:1027D0000003C4F20003984223D041F6FF73C4F211
:1027E0000003984228DC70453ADCB0F1804F5BD0A2
:1027F00040F20043C4F20003984255D040F6000373
:10280000C4F200034EE000BF40F60043C4F20003F0
:10281000984206D0604504D00023C4F201039842D8
:10282000DBD14B6825F0700243EA020541F6FF73E5
:10283000C4F200039842D6DD43F6FF73C4F20103ED
:1028400098421FDC42F20003C4F2000398422BD0EE
:102850000023C4F20103984226D0604524D028E02A
:1028600040F60043C4F2000398421DD041F6000335
:10287000C4F20003984217D041F60043C4F20003AB
:1028800010E000BF44F20003C4F2010398420BD0F1
:1028900044F60003C4F20103984205D044F2004319
:1028A000C4F20103984204D1CB6825F4407243EA94
:1028B00002050A688C684B69C46240F480648262D5
:1028C000644504BF09690163026825F0800142F094
:1028D000040219430260012242610160B0BD0000A0
:1028E000806B0021C185FFF78BBB000081B090F8A1
:1028F0004210222921D183680246B3F5805F09D1B5
:1029000052F8281F52F8183C002B63D003685B680C
:102910000AE000BF52F8281F13B90369002BF5D055
:1029200003685B6803F07F030B701168013111606D
:10293000C18D01390A04C18502D001B0704700BFC2
:102940000168CA6822F02002CA60CA6822F4807254
:10295000CA604A6922F001024A61202180F84210CF
:1029600000214163026B012A3CD10163016851E8F7
:10297000031F026821F0100142E80313DBB1016874
:1029800051E8031F026821F0100142E8031393B1DC
:10299000016851E8031F026821F0100142E80313A7
:1029A0004BB1016851E8031F026821F0100142E8B1
:1029B0000313002BDAD101680A68D20606D500227B
:1029C00000920A680092496800910099818D01B0D7
:1029D000FFF714BB026852686FF35F2221F8022BE5
:1029E0008162A5E701B0FFF769BE0000B0B50446FB
:1029F000006804F108030ECB0569194325F440551E
:102A00002A4302616269E3691143C268194349F2CA
:102A10000C639A431143C1604169A26921F440717A
:102A200041F20043114340F48062C4F201039A4230
:102A3000416103D1FEF732FC02E000BFFEF71AFC51
:102A4000E1694FF69C7563681922C0F6FF75B1F510
:102A5000004FA0FB02011FD15A00DB0FFDF7B0FBB6
:102A600048F21F51C5F2EB11A0FB01235A0905F1F1
:102A7000805302FB0300322303EBC000A0FB0101E3
:102A80004FF4F87000EA111000EB0210C1F342118C
:102A9000084421688860B0BD9A009B0FFDF790FB49
:102AA00048F21F51C5F2EB11A0FB01235A0902FBAA
:102AB0000500322303EB0010A0FB0101F02000EA27
:102AC000511000EB0210C1F34311084421688860E3
:102AD000B0BD000040F2FC20C2F20000FFF792BA45
:102AE000FEE70000C0E9012140F24001C2F200010E
:102AF000D1E900234FF0000CC0F80CC0002A486058
:102B000018BF03F10C0108607047000010B540F2D7
:102B10000804C2F20004204600F00CF804F118008A
:102B2000BDE8104000F006B840F20800C2F2000014
:102B30004169084798B1017A002918BF70470121FF
:102B4000017242F6C571C0F6000142F6B17243F25D
:102B500019030C30C0F60002C0F600030EC0704727
:102B6000B0B540F24004C2F20004256802E000BFA4
:102B7000A068C568002DA56008BFB0BDFEF7C2F80B
:102B8000D5E90012411A9142F2D3A1682860896800
:102B90008847EDE796B040F60008C4F20208FEF759
:102BA0000DFAFFF79BFD002443F630051294CDE9A2
:102BB0001044CDE90E440194C4F202052868A8F53A
:102BC000006A40F08000286028681C2100F0800026
:102BD0000190019801942868012240F001002860CA
:102BE00028681C2700F001000190019801942868D2
:102BF000012640F004002860286800F004000190DD
:102C000001980194286840F002002860286800F0CC
:102C10000200019001980194286840F0100028609B
:102C2000286800F01000019001985046FEF764F803
:102C30004046102100224FF0100BFEF75DF8404691
:102C400020210122FEF758F8A8F5806948460421A2
:102C50000122FEF751F8CDE90E7603200EAF119058
:102C6000504639461096FDF76FFF40463946CDE98C
:102C70000EB6CDE91044FDF767FF2020CDE90E0622
:102C800040463946CDE91064FDF75EFF0420CDE9EA
:102C90000E0648463946CDE91064FDF755FF0E94FF
:102CA0002868002140F4800028602868002200F491
:102CB00080000E900E980E94286840F40010286052
:102CC000286800F400100E900E980B20FEF7E4F92F
:102CD0000B20FEF7CFF90D2000210022FEF7DCF9D2
:102CE0000D20FEF7C7F9462000210022FEF7D4F997
:102CF0004620FEF7BFF940F2FC20A8F57841C2F269
:102D000000000C234FF4612280E81600C0E9034460
:102D1000C0E90534C461FFF73FFC18B172B600BFCB
:102D2000FEE700BF40F25C20A8F55841C2F2000067
:102D30004FF482724FF40073182780E816000A21BE
:102D4000C0E90344C0E90543C761C0E90844C0E9DC
:102D50000A41FEF7C5FC18B172B600BFFEE700BF1E
:102D600040F2B41048F2A064A8F5DA31C2F20000D3
:102D700000254FF48042C0F2010480E83200C0E92F
:102D80000352C0E90555C0E90755FDF7C1FF18B169
:102D900072B600BFFEE700BF2020089040F2B420CA
:102DA0008021A8F58432C2F20000602341F293171B
:102DB00001260D95CDE90B550991CDE91455CDE9C5
:102DC0001255CDE91055CDE90E55C0E90025C0E9F1
:102DD0000237C0E904568161FEF7CEFD10B172B62C
:102DE000FEE700BF4FF480500A9040F2B420C2F2D8
:102DF00000000AA9FEF712FE10B172B6FEE700BF8E
:102E000040F2B420C2F20000FFF7C2F810B172B66F
:102E1000FEE700BF40F2B420C2F2000008A9FEF7AE
:102E20004DFD18B172B600BFFEE700BF60200190F3
:102E300040F6340002900020CDE90300CDE9050002
:102E4000079040F2B420C2F2000001A90022FEF770
:102E50008FFF18B172B600BFFEE700BF40F2B4208A
:102E6000C2F2000001A90422FEF782FF10B172B67F
:102E7000FEE700BF40F2B420C2F2000001A9082220
:102E8000FEF776FF10B172B6FEE700BF4FF40050B8
:102E9000139040F2B4200025C2F200000EA9129552
:102EA000CDE91055CDE90E551595FEF7E1FC08B1B9
:102EB00072B6FEE740F2B420C2F20000FEF728FF2F
:102EC00040F20820A8F5D831C2F200004FF4804249
:102ED00080E83200C0E90352C0E90555C0E9075552
:102EE000FDF716FF10B172B6FEE700BF40F24C00CE
:102EF00001230024A8F56841C2F200000125C0F6B4
:102F000000730494CDE91444CDE91244CDE9104492
:102F1000CDE90E444FF48032047680F82040C0E9B9
:102F20000A34C56180F8304080E81600C0E90345E6
:102F30004561FDF723FB08B172B6FEE740F24C0095
:102F4000C2F2000001A9CDE901450394FDF778FA2A
:102F500010B172B6FEE700BF00204FF480110E9052
:102F600015914FF48031ADF84C00119040F24C00B7
:102F7000012402251491C2F200000EA90F941295AB
:102F80001094FDF7B1F908B172B6FEE740F24C00BB
:102F9000C2F200000EA9CDE90E45FDF7A5F908B172
:102FA00072B6FEE700F018F800F030F8FCE7000019
:102FB00081794A1E18BF0122036881881846FDF7EF
:102FC0009BBE0000817903680139B1FA81F14A0999
:102FD00081881846FDF790BE80B54FF47A70FDF7F2
:102FE0009FFDFFF793FD43F26000C0F60000036809
:102FF00040F2443042F62931C2F20000C0F600012E
:103000004FF47A72BDE880401847000043F2600038
:10301000C0F6000040680047026881881046FDF74E
:1030200063BE02E008C8121F08C1002AFAD1704727
:103030007047002001E001C1121F002AFBD1704738
:103040000000000000000000010203040607080958
:10305000000000000102030400061016000610160E
:10306000E52A0008612B00088830000800000020D5
:103070004000000022300008C83000084000002056
:1030800018070000323000080100000010000000A6
:1030900000040240040000000000000000000000E6
:1030A00000000000000000000008024020000000B6
:1030B0000000000000000000000000000000000010
:0830C0000024F40000000000F0
:040000050800018965
:00000001FF
